{
  "address": "0xb03a739305DC67BDb9885F4e7f7C54Bb0B86f699",
  "abi": [
    {
      "inputs": [],
      "stateMutability": "nonpayable",
      "type": "constructor"
    },
    {
      "inputs": [
        {
          "internalType": "string",
          "name": "_fruit",
          "type": "string"
        }
      ],
      "name": "getVotes",
      "outputs": [
        {
          "internalType": "uint256",
          "name": "",
          "type": "uint256"
        }
      ],
      "stateMutability": "view",
      "type": "function"
    },
    {
      "inputs": [
        {
          "internalType": "string",
          "name": "_fruit",
          "type": "string"
        }
      ],
      "name": "voteForFruit",
      "outputs": [],
      "stateMutability": "nonpayable",
      "type": "function"
    }
  ],
  "transactionHash": "0x336b169c39525702dc748963bf1e65712c98aa7ccee6bb73356e38ca278a5e44",
  "args": [],
  "numDeployments": 2,
  "solcInputHash": "9e68596bb2c9df4bdddccabaa9db4924",
  "bytecode": "0x608060405234801561001057600080fd5b50610423806100206000396000f3fe608060405234801561001057600080fd5b50600436106100365760003560e01c8063805265e51461003b578063fdcd2d581461006b575b600080fd5b61005560048036038101906100509190610271565b610087565b60405161006291906102d3565b60405180910390f35b61008560048036038101906100809190610271565b6100ae565b005b60008082604051610098919061035f565b9081526020016040518091039020549050919050565b600080826040516100bf919061035f565b9081526020016040518091039020549050600081116100e157600190506100f0565b80806100ec906103a5565b9150505b80600083604051610101919061035f565b9081526020016040518091039020819055505050565b6000604051905090565b600080fd5b600080fd5b600080fd5b600080fd5b6000601f19601f8301169050919050565b7f4e487b7100000000000000000000000000000000000000000000000000000000600052604160045260246000fd5b61017e82610135565b810181811067ffffffffffffffff8211171561019d5761019c610146565b5b80604052505050565b60006101b0610117565b90506101bc8282610175565b919050565b600067ffffffffffffffff8211156101dc576101db610146565b5b6101e582610135565b9050602081019050919050565b82818337600083830152505050565b600061021461020f846101c1565b6101a6565b9050828152602081018484840111156102305761022f610130565b5b61023b8482856101f2565b509392505050565b600082601f8301126102585761025761012b565b5b8135610268848260208601610201565b91505092915050565b60006020828403121561028757610286610121565b5b600082013567ffffffffffffffff8111156102a5576102a4610126565b5b6102b184828501610243565b91505092915050565b6000819050919050565b6102cd816102ba565b82525050565b60006020820190506102e860008301846102c4565b92915050565b600081519050919050565b600081905092915050565b60005b83811015610322578082015181840152602081019050610307565b60008484015250505050565b6000610339826102ee565b61034381856102f9565b9350610353818560208601610304565b80840191505092915050565b600061036b828461032e565b915081905092915050565b7f4e487b7100000000000000000000000000000000000000000000000000000000600052601160045260246000fd5b60006103b0826102ba565b91507fffffffffffffffffffffffffffffffffffffffffffffffffffffffffffffffff82036103e2576103e1610376565b5b60018201905091905056fea2646970667358221220ae19c2a5b9dd8212f4368c8b89a451f2a9addb2da88eada57cfc022edc9c897d64736f6c63430008140033",
  "devdoc": {
    "author": "<a href=\"mailto:emmanuelmayowa95@gmail.com\">Mayowa</a>",
    "details": "contract to vote for fruits,",
    "kind": "dev",
    "methods": {},
    "version": 1
  },
  "userdoc": {
    "kind": "user",
    "methods": {},
    "version": 1
  },
  "storageLayout": {
    "storage": [
      {
        "astId": 6,
        "contract": "contracts/Fruity.sol:FruitVoting",
        "label": "s_fruitInfo",
        "offset": 0,
        "slot": "0",
        "type": "t_mapping(t_string_memory_ptr,t_uint256)"
      }
    ],
    "types": {
      "t_mapping(t_string_memory_ptr,t_uint256)": {
        "encoding": "mapping",
        "key": "t_string_memory_ptr",
        "label": "mapping(string => uint256)",
        "numberOfBytes": "32",
        "value": "t_uint256"
      },
      "t_string_memory_ptr": {
        "encoding": "bytes",
        "label": "string",
        "numberOfBytes": "32"
      },
      "t_uint256": {
        "encoding": "inplace",
        "label": "uint256",
        "numberOfBytes": "32"
      }
    }
  }
}